{
  "_format": "hh-sol-artifact-1",
  "contractName": "MyERC721",
  "sourceName": "contracts/StudentSocietyDAO.sol",
  "abi": [
    {
      "inputs": [],
      "stateMutability": "nonpayable",
      "type": "constructor"
    },
    {
      "anonymous": false,
      "inputs": [
        {
          "indexed": true,
          "internalType": "address",
          "name": "owner",
          "type": "address"
        },
        {
          "indexed": true,
          "internalType": "address",
          "name": "approved",
          "type": "address"
        },
        {
          "indexed": true,
          "internalType": "uint256",
          "name": "tokenId",
          "type": "uint256"
        }
      ],
      "name": "Approval",
      "type": "event"
    },
    {
      "anonymous": false,
      "inputs": [
        {
          "indexed": true,
          "internalType": "address",
          "name": "owner",
          "type": "address"
        },
        {
          "indexed": true,
          "internalType": "address",
          "name": "operator",
          "type": "address"
        },
        {
          "indexed": false,
          "internalType": "bool",
          "name": "approved",
          "type": "bool"
        }
      ],
      "name": "ApprovalForAll",
      "type": "event"
    },
    {
      "anonymous": false,
      "inputs": [
        {
          "indexed": true,
          "internalType": "address",
          "name": "from",
          "type": "address"
        },
        {
          "indexed": true,
          "internalType": "address",
          "name": "to",
          "type": "address"
        },
        {
          "indexed": true,
          "internalType": "uint256",
          "name": "tokenId",
          "type": "uint256"
        }
      ],
      "name": "Transfer",
      "type": "event"
    },
    {
      "inputs": [
        {
          "internalType": "address",
          "name": "to",
          "type": "address"
        },
        {
          "internalType": "uint256",
          "name": "tokenId",
          "type": "uint256"
        }
      ],
      "name": "approve",
      "outputs": [],
      "stateMutability": "nonpayable",
      "type": "function"
    },
    {
      "inputs": [
        {
          "internalType": "address",
          "name": "player",
          "type": "address"
        }
      ],
      "name": "awardItem",
      "outputs": [
        {
          "internalType": "uint256",
          "name": "",
          "type": "uint256"
        }
      ],
      "stateMutability": "nonpayable",
      "type": "function"
    },
    {
      "inputs": [
        {
          "internalType": "address",
          "name": "owner",
          "type": "address"
        }
      ],
      "name": "balanceOf",
      "outputs": [
        {
          "internalType": "uint256",
          "name": "",
          "type": "uint256"
        }
      ],
      "stateMutability": "view",
      "type": "function"
    },
    {
      "inputs": [
        {
          "internalType": "uint256",
          "name": "tokenId",
          "type": "uint256"
        }
      ],
      "name": "getApproved",
      "outputs": [
        {
          "internalType": "address",
          "name": "",
          "type": "address"
        }
      ],
      "stateMutability": "view",
      "type": "function"
    },
    {
      "inputs": [
        {
          "internalType": "address",
          "name": "owner",
          "type": "address"
        },
        {
          "internalType": "address",
          "name": "operator",
          "type": "address"
        }
      ],
      "name": "isApprovedForAll",
      "outputs": [
        {
          "internalType": "bool",
          "name": "",
          "type": "bool"
        }
      ],
      "stateMutability": "view",
      "type": "function"
    },
    {
      "inputs": [],
      "name": "name",
      "outputs": [
        {
          "internalType": "string",
          "name": "",
          "type": "string"
        }
      ],
      "stateMutability": "view",
      "type": "function"
    },
    {
      "inputs": [
        {
          "internalType": "uint256",
          "name": "tokenId",
          "type": "uint256"
        }
      ],
      "name": "ownerOf",
      "outputs": [
        {
          "internalType": "address",
          "name": "",
          "type": "address"
        }
      ],
      "stateMutability": "view",
      "type": "function"
    },
    {
      "inputs": [
        {
          "internalType": "address",
          "name": "from",
          "type": "address"
        },
        {
          "internalType": "address",
          "name": "to",
          "type": "address"
        },
        {
          "internalType": "uint256",
          "name": "tokenId",
          "type": "uint256"
        }
      ],
      "name": "safeTransferFrom",
      "outputs": [],
      "stateMutability": "nonpayable",
      "type": "function"
    },
    {
      "inputs": [
        {
          "internalType": "address",
          "name": "from",
          "type": "address"
        },
        {
          "internalType": "address",
          "name": "to",
          "type": "address"
        },
        {
          "internalType": "uint256",
          "name": "tokenId",
          "type": "uint256"
        },
        {
          "internalType": "bytes",
          "name": "data",
          "type": "bytes"
        }
      ],
      "name": "safeTransferFrom",
      "outputs": [],
      "stateMutability": "nonpayable",
      "type": "function"
    },
    {
      "inputs": [
        {
          "internalType": "address",
          "name": "operator",
          "type": "address"
        },
        {
          "internalType": "bool",
          "name": "approved",
          "type": "bool"
        }
      ],
      "name": "setApprovalForAll",
      "outputs": [],
      "stateMutability": "nonpayable",
      "type": "function"
    },
    {
      "inputs": [
        {
          "internalType": "bytes4",
          "name": "interfaceId",
          "type": "bytes4"
        }
      ],
      "name": "supportsInterface",
      "outputs": [
        {
          "internalType": "bool",
          "name": "",
          "type": "bool"
        }
      ],
      "stateMutability": "view",
      "type": "function"
    },
    {
      "inputs": [],
      "name": "symbol",
      "outputs": [
        {
          "internalType": "string",
          "name": "",
          "type": "string"
        }
      ],
      "stateMutability": "view",
      "type": "function"
    },
    {
      "inputs": [
        {
          "internalType": "uint256",
          "name": "tokenId",
          "type": "uint256"
        }
      ],
      "name": "tokenURI",
      "outputs": [
        {
          "internalType": "string",
          "name": "",
          "type": "string"
        }
      ],
      "stateMutability": "view",
      "type": "function"
    },
    {
      "inputs": [
        {
          "internalType": "address",
          "name": "from",
          "type": "address"
        },
        {
          "internalType": "address",
          "name": "to",
          "type": "address"
        },
        {
          "internalType": "uint256",
          "name": "tokenId",
          "type": "uint256"
        }
      ],
      "name": "transferFrom",
      "outputs": [],
      "stateMutability": "nonpayable",
      "type": "function"
    }
  ],
  "bytecode": "0x60806040523480156200001157600080fd5b506040518060400160405280600381526020017f57717a00000000000000000000000000000000000000000000000000000000008152506040518060400160405280600481526020017f4769667400000000000000000000000000000000000000000000000000000000815250816000908051906020019062000096929190620000b8565b508060019080519060200190620000af929190620000b8565b505050620001cd565b828054620000c69062000197565b90600052602060002090601f016020900481019282620000ea576000855562000136565b82601f106200010557805160ff191683800117855562000136565b8280016001018555821562000136579182015b828111156200013557825182559160200191906001019062000118565b5b50905062000145919062000149565b5090565b5b80821115620001645760008160009055506001016200014a565b5090565b7f4e487b7100000000000000000000000000000000000000000000000000000000600052602260045260246000fd5b60006002820490506001821680620001b057607f821691505b60208210811415620001c757620001c662000168565b5b50919050565b6125f680620001dd6000396000f3fe608060405234801561001057600080fd5b50600436106100ea5760003560e01c806370a082311161008c578063b88d4fde11610066578063b88d4fde1461025b578063c87b56dd14610277578063e985e9c5146102a7578063f2fb2120146102d7576100ea565b806370a08231146101f157806395d89b4114610221578063a22cb4651461023f576100ea565b8063095ea7b3116100c8578063095ea7b31461016d57806323b872dd1461018957806342842e0e146101a55780636352211e146101c1576100ea565b806301ffc9a7146100ef57806306fdde031461011f578063081812fc1461013d575b600080fd5b61010960048036038101906101049190611755565b610307565b604051610116919061179d565b60405180910390f35b6101276103e9565b6040516101349190611851565b60405180910390f35b610157600480360381019061015291906118a9565b61047b565b6040516101649190611917565b60405180910390f35b6101876004803603810190610182919061195e565b6104c1565b005b6101a3600480360381019061019e919061199e565b6105d9565b005b6101bf60048036038101906101ba919061199e565b610639565b005b6101db60048036038101906101d691906118a9565b610659565b6040516101e89190611917565b60405180910390f35b61020b600480360381019061020691906119f1565b61070b565b6040516102189190611a2d565b60405180910390f35b6102296107c3565b6040516102369190611851565b60405180910390f35b61025960048036038101906102549190611a74565b610855565b005b61027560048036038101906102709190611be9565b61086b565b005b610291600480360381019061028c91906118a9565b6108cd565b60405161029e9190611851565b60405180910390f35b6102c160048036038101906102bc9190611c6c565b6109e0565b6040516102ce919061179d565b60405180910390f35b6102f160048036038101906102ec91906119f1565b610a74565b6040516102fe9190611a2d565b60405180910390f35b60007f80ac58cd000000000000000000000000000000000000000000000000000000007bffffffffffffffffffffffffffffffffffffffffffffffffffffffff1916827bffffffffffffffffffffffffffffffffffffffffffffffffffffffff191614806103d257507f5b5e139f000000000000000000000000000000000000000000000000000000007bffffffffffffffffffffffffffffffffffffffffffffffffffffffff1916827bffffffffffffffffffffffffffffffffffffffffffffffffffffffff1916145b806103e257506103e182610aa0565b5b9050919050565b6060600080546103f890611cdb565b80601f016020809104026020016040519081016040528092919081815260200182805461042490611cdb565b80156104715780601f1061044657610100808354040283529160200191610471565b820191906000526020600020905b81548152906001019060200180831161045457829003601f168201915b5050505050905090565b600061048682610b0a565b6004600083815260200190815260200160002060009054906101000a900473ffffffffffffffffffffffffffffffffffffffff169050919050565b60006104cc82610659565b90508073ffffffffffffffffffffffffffffffffffffffff168373ffffffffffffffffffffffffffffffffffffffff16141561053d576040517f08c379a000000000000000000000000000000000000000000000000000000000815260040161053490611d7f565b60405180910390fd5b8073ffffffffffffffffffffffffffffffffffffffff1661055c610b55565b73ffffffffffffffffffffffffffffffffffffffff16148061058b575061058a81610585610b55565b6109e0565b5b6105ca576040517f08c379a00000000000000000000000000000000000000000000000000000000081526004016105c190611e11565b60405180910390fd5b6105d48383610b5d565b505050565b6105ea6105e4610b55565b82610c16565b610629576040517f08c379a000000000000000000000000000000000000000000000000000000000815260040161062090611ea3565b60405180910390fd5b610634838383610cab565b505050565b6106548383836040518060200160405280600081525061086b565b505050565b6000806002600084815260200190815260200160002060009054906101000a900473ffffffffffffffffffffffffffffffffffffffff169050600073ffffffffffffffffffffffffffffffffffffffff168173ffffffffffffffffffffffffffffffffffffffff161415610702576040517f08c379a00000000000000000000000000000000000000000000000000000000081526004016106f990611f0f565b60405180910390fd5b80915050919050565b60008073ffffffffffffffffffffffffffffffffffffffff168273ffffffffffffffffffffffffffffffffffffffff16141561077c576040517f08c379a000000000000000000000000000000000000000000000000000000000815260040161077390611fa1565b60405180910390fd5b600360008373ffffffffffffffffffffffffffffffffffffffff1673ffffffffffffffffffffffffffffffffffffffff168152602001908152602001600020549050919050565b6060600180546107d290611cdb565b80601f01602080910402602001604051908101604052809291908181526020018280546107fe90611cdb565b801561084b5780601f106108205761010080835404028352916020019161084b565b820191906000526020600020905b81548152906001019060200180831161082e57829003601f168201915b5050505050905090565b610867610860610b55565b8383610f12565b5050565b61087c610876610b55565b83610c16565b6108bb576040517f08c379a00000000000000000000000000000000000000000000000000000000081526004016108b290611ea3565b60405180910390fd5b6108c78484848461107f565b50505050565b60606108d882610b0a565b60006006600084815260200190815260200160002080546108f890611cdb565b80601f016020809104026020016040519081016040528092919081815260200182805461092490611cdb565b80156109715780601f1061094657610100808354040283529160200191610971565b820191906000526020600020905b81548152906001019060200180831161095457829003601f168201915b5050505050905060006109826110db565b90506000815114156109985781925050506109db565b6000825111156109cd5780826040516020016109b5929190611ffd565b604051602081830303815290604052925050506109db565b6109d6846110f2565b925050505b919050565b6000600560008473ffffffffffffffffffffffffffffffffffffffff1673ffffffffffffffffffffffffffffffffffffffff16815260200190815260200160002060008373ffffffffffffffffffffffffffffffffffffffff1673ffffffffffffffffffffffffffffffffffffffff16815260200190815260200160002060009054906101000a900460ff16905092915050565b600080610a81600761115a565b9050610a8d8382611168565b610a976007611342565b80915050919050565b60007f01ffc9a7000000000000000000000000000000000000000000000000000000007bffffffffffffffffffffffffffffffffffffffffffffffffffffffff1916827bffffffffffffffffffffffffffffffffffffffffffffffffffffffff1916149050919050565b610b1381611358565b610b52576040517f08c379a0000000000000000000000000000000000000000000000000000000008152600401610b4990611f0f565b60405180910390fd5b50565b600033905090565b816004600083815260200190815260200160002060006101000a81548173ffffffffffffffffffffffffffffffffffffffff021916908373ffffffffffffffffffffffffffffffffffffffff160217905550808273ffffffffffffffffffffffffffffffffffffffff16610bd083610659565b73ffffffffffffffffffffffffffffffffffffffff167f8c5be1e5ebec7d5bd14f71427d1e84f3dd0314c0f7b2291e5b200ac8c7c3b92560405160405180910390a45050565b600080610c2283610659565b90508073ffffffffffffffffffffffffffffffffffffffff168473ffffffffffffffffffffffffffffffffffffffff161480610c645750610c6381856109e0565b5b80610ca257508373ffffffffffffffffffffffffffffffffffffffff16610c8a8461047b565b73ffffffffffffffffffffffffffffffffffffffff16145b91505092915050565b8273ffffffffffffffffffffffffffffffffffffffff16610ccb82610659565b73ffffffffffffffffffffffffffffffffffffffff1614610d21576040517f08c379a0000000000000000000000000000000000000000000000000000000008152600401610d1890612093565b60405180910390fd5b600073ffffffffffffffffffffffffffffffffffffffff168273ffffffffffffffffffffffffffffffffffffffff161415610d91576040517f08c379a0000000000000000000000000000000000000000000000000000000008152600401610d8890612125565b60405180910390fd5b610d9c8383836113c4565b610da7600082610b5d565b6001600360008573ffffffffffffffffffffffffffffffffffffffff1673ffffffffffffffffffffffffffffffffffffffff1681526020019081526020016000206000828254610df79190612174565b925050819055506001600360008473ffffffffffffffffffffffffffffffffffffffff1673ffffffffffffffffffffffffffffffffffffffff1681526020019081526020016000206000828254610e4e91906121a8565b92505081905550816002600083815260200190815260200160002060006101000a81548173ffffffffffffffffffffffffffffffffffffffff021916908373ffffffffffffffffffffffffffffffffffffffff160217905550808273ffffffffffffffffffffffffffffffffffffffff168473ffffffffffffffffffffffffffffffffffffffff167fddf252ad1be2c89b69c2b068fc378daa952ba7f163c4a11628f55a4df523b3ef60405160405180910390a4610f0d8383836113c9565b505050565b8173ffffffffffffffffffffffffffffffffffffffff168373ffffffffffffffffffffffffffffffffffffffff161415610f81576040517f08c379a0000000000000000000000000000000000000000000000000000000008152600401610f789061224a565b60405180910390fd5b80600560008573ffffffffffffffffffffffffffffffffffffffff1673ffffffffffffffffffffffffffffffffffffffff16815260200190815260200160002060008473ffffffffffffffffffffffffffffffffffffffff1673ffffffffffffffffffffffffffffffffffffffff16815260200190815260200160002060006101000a81548160ff0219169083151502179055508173ffffffffffffffffffffffffffffffffffffffff168373ffffffffffffffffffffffffffffffffffffffff167f17307eab39ab6107e8899845ad3d59bd9653f200f220920489ca2b5937696c3183604051611072919061179d565b60405180910390a3505050565b61108a848484610cab565b611096848484846113ce565b6110d5576040517f08c379a00000000000000000000000000000000000000000000000000000000081526004016110cc906122dc565b60405180910390fd5b50505050565b606060405180602001604052806000815250905090565b60606110fd82610b0a565b60006111076110db565b905060008151116111275760405180602001604052806000815250611152565b8061113184611565565b604051602001611142929190611ffd565b6040516020818303038152906040525b915050919050565b600081600001549050919050565b600073ffffffffffffffffffffffffffffffffffffffff168273ffffffffffffffffffffffffffffffffffffffff1614156111d8576040517f08c379a00000000000000000000000000000000000000000000000000000000081526004016111cf90612348565b60405180910390fd5b6111e181611358565b15611221576040517f08c379a0000000000000000000000000000000000000000000000000000000008152600401611218906123b4565b60405180910390fd5b61122d600083836113c4565b6001600360008473ffffffffffffffffffffffffffffffffffffffff1673ffffffffffffffffffffffffffffffffffffffff168152602001908152602001600020600082825461127d91906121a8565b92505081905550816002600083815260200190815260200160002060006101000a81548173ffffffffffffffffffffffffffffffffffffffff021916908373ffffffffffffffffffffffffffffffffffffffff160217905550808273ffffffffffffffffffffffffffffffffffffffff16600073ffffffffffffffffffffffffffffffffffffffff167fddf252ad1be2c89b69c2b068fc378daa952ba7f163c4a11628f55a4df523b3ef60405160405180910390a461133e600083836113c9565b5050565b6001816000016000828254019250508190555050565b60008073ffffffffffffffffffffffffffffffffffffffff166002600084815260200190815260200160002060009054906101000a900473ffffffffffffffffffffffffffffffffffffffff1673ffffffffffffffffffffffffffffffffffffffff1614159050919050565b505050565b505050565b60006113ef8473ffffffffffffffffffffffffffffffffffffffff166116c6565b15611558578373ffffffffffffffffffffffffffffffffffffffff1663150b7a02611418610b55565b8786866040518563ffffffff1660e01b815260040161143a9493929190612429565b602060405180830381600087803b15801561145457600080fd5b505af192505050801561148557506040513d601f19601f82011682018060405250810190611482919061248a565b60015b611508573d80600081146114b5576040519150601f19603f3d011682016040523d82523d6000602084013e6114ba565b606091505b50600081511415611500576040517f08c379a00000000000000000000000000000000000000000000000000000000081526004016114f7906122dc565b60405180910390fd5b805181602001fd5b63150b7a0260e01b7bffffffffffffffffffffffffffffffffffffffffffffffffffffffff1916817bffffffffffffffffffffffffffffffffffffffffffffffffffffffff19161491505061155d565b600190505b949350505050565b606060008214156115ad576040518060400160405280600181526020017f300000000000000000000000000000000000000000000000000000000000000081525090506116c1565b600082905060005b600082146115df5780806115c8906124b7565b915050600a826115d8919061252f565b91506115b5565b60008167ffffffffffffffff8111156115fb576115fa611abe565b5b6040519080825280601f01601f19166020018201604052801561162d5781602001600182028036833780820191505090505b5090505b600085146116ba576001826116469190612174565b9150600a856116559190612560565b603061166191906121a8565b60f81b81838151811061167757611676612591565b5b60200101907effffffffffffffffffffffffffffffffffffffffffffffffffffffffffffff1916908160001a905350600a856116b3919061252f565b9450611631565b8093505050505b919050565b6000808273ffffffffffffffffffffffffffffffffffffffff163b119050919050565b6000604051905090565b600080fd5b600080fd5b60007fffffffff0000000000000000000000000000000000000000000000000000000082169050919050565b611732816116fd565b811461173d57600080fd5b50565b60008135905061174f81611729565b92915050565b60006020828403121561176b5761176a6116f3565b5b600061177984828501611740565b91505092915050565b60008115159050919050565b61179781611782565b82525050565b60006020820190506117b2600083018461178e565b92915050565b600081519050919050565b600082825260208201905092915050565b60005b838110156117f25780820151818401526020810190506117d7565b83811115611801576000848401525b50505050565b6000601f19601f8301169050919050565b6000611823826117b8565b61182d81856117c3565b935061183d8185602086016117d4565b61184681611807565b840191505092915050565b6000602082019050818103600083015261186b8184611818565b905092915050565b6000819050919050565b61188681611873565b811461189157600080fd5b50565b6000813590506118a38161187d565b92915050565b6000602082840312156118bf576118be6116f3565b5b60006118cd84828501611894565b91505092915050565b600073ffffffffffffffffffffffffffffffffffffffff82169050919050565b6000611901826118d6565b9050919050565b611911816118f6565b82525050565b600060208201905061192c6000830184611908565b92915050565b61193b816118f6565b811461194657600080fd5b50565b60008135905061195881611932565b92915050565b60008060408385031215611975576119746116f3565b5b600061198385828601611949565b925050602061199485828601611894565b9150509250929050565b6000806000606084860312156119b7576119b66116f3565b5b60006119c586828701611949565b93505060206119d686828701611949565b92505060406119e786828701611894565b9150509250925092565b600060208284031215611a0757611a066116f3565b5b6000611a1584828501611949565b91505092915050565b611a2781611873565b82525050565b6000602082019050611a426000830184611a1e565b92915050565b611a5181611782565b8114611a5c57600080fd5b50565b600081359050611a6e81611a48565b92915050565b60008060408385031215611a8b57611a8a6116f3565b5b6000611a9985828601611949565b9250506020611aaa85828601611a5f565b9150509250929050565b600080fd5b600080fd5b7f4e487b7100000000000000000000000000000000000000000000000000000000600052604160045260246000fd5b611af682611807565b810181811067ffffffffffffffff82111715611b1557611b14611abe565b5b80604052505050565b6000611b286116e9565b9050611b348282611aed565b919050565b600067ffffffffffffffff821115611b5457611b53611abe565b5b611b5d82611807565b9050602081019050919050565b82818337600083830152505050565b6000611b8c611b8784611b39565b611b1e565b905082815260208101848484011115611ba857611ba7611ab9565b5b611bb3848285611b6a565b509392505050565b600082601f830112611bd057611bcf611ab4565b5b8135611be0848260208601611b79565b91505092915050565b60008060008060808587031215611c0357611c026116f3565b5b6000611c1187828801611949565b9450506020611c2287828801611949565b9350506040611c3387828801611894565b925050606085013567ffffffffffffffff811115611c5457611c536116f8565b5b611c6087828801611bbb565b91505092959194509250565b60008060408385031215611c8357611c826116f3565b5b6000611c9185828601611949565b9250506020611ca285828601611949565b9150509250929050565b7f4e487b7100000000000000000000000000000000000000000000000000000000600052602260045260246000fd5b60006002820490506001821680611cf357607f821691505b60208210811415611d0757611d06611cac565b5b50919050565b7f4552433732313a20617070726f76616c20746f2063757272656e74206f776e6560008201527f7200000000000000000000000000000000000000000000000000000000000000602082015250565b6000611d696021836117c3565b9150611d7482611d0d565b604082019050919050565b60006020820190508181036000830152611d9881611d5c565b9050919050565b7f4552433732313a20617070726f76652063616c6c6572206973206e6f7420746f60008201527f6b656e206f776e6572206e6f7220617070726f76656420666f7220616c6c0000602082015250565b6000611dfb603e836117c3565b9150611e0682611d9f565b604082019050919050565b60006020820190508181036000830152611e2a81611dee565b9050919050565b7f4552433732313a2063616c6c6572206973206e6f7420746f6b656e206f776e6560008201527f72206e6f7220617070726f766564000000000000000000000000000000000000602082015250565b6000611e8d602e836117c3565b9150611e9882611e31565b604082019050919050565b60006020820190508181036000830152611ebc81611e80565b9050919050565b7f4552433732313a20696e76616c696420746f6b656e2049440000000000000000600082015250565b6000611ef96018836117c3565b9150611f0482611ec3565b602082019050919050565b60006020820190508181036000830152611f2881611eec565b9050919050565b7f4552433732313a2061646472657373207a65726f206973206e6f74206120766160008201527f6c6964206f776e65720000000000000000000000000000000000000000000000602082015250565b6000611f8b6029836117c3565b9150611f9682611f2f565b604082019050919050565b60006020820190508181036000830152611fba81611f7e565b9050919050565b600081905092915050565b6000611fd7826117b8565b611fe18185611fc1565b9350611ff18185602086016117d4565b80840191505092915050565b60006120098285611fcc565b91506120158284611fcc565b91508190509392505050565b7f4552433732313a207472616e736665722066726f6d20696e636f72726563742060008201527f6f776e6572000000000000000000000000000000000000000000000000000000602082015250565b600061207d6025836117c3565b915061208882612021565b604082019050919050565b600060208201905081810360008301526120ac81612070565b9050919050565b7f4552433732313a207472616e7366657220746f20746865207a65726f2061646460008201527f7265737300000000000000000000000000000000000000000000000000000000602082015250565b600061210f6024836117c3565b915061211a826120b3565b604082019050919050565b6000602082019050818103600083015261213e81612102565b9050919050565b7f4e487b7100000000000000000000000000000000000000000000000000000000600052601160045260246000fd5b600061217f82611873565b915061218a83611873565b92508282101561219d5761219c612145565b5b828203905092915050565b60006121b382611873565b91506121be83611873565b9250827fffffffffffffffffffffffffffffffffffffffffffffffffffffffffffffffff038211156121f3576121f2612145565b5b828201905092915050565b7f4552433732313a20617070726f766520746f2063616c6c657200000000000000600082015250565b60006122346019836117c3565b915061223f826121fe565b602082019050919050565b6000602082019050818103600083015261226381612227565b9050919050565b7f4552433732313a207472616e7366657220746f206e6f6e20455243373231526560008201527f63656976657220696d706c656d656e7465720000000000000000000000000000602082015250565b60006122c66032836117c3565b91506122d18261226a565b604082019050919050565b600060208201905081810360008301526122f5816122b9565b9050919050565b7f4552433732313a206d696e7420746f20746865207a65726f2061646472657373600082015250565b60006123326020836117c3565b915061233d826122fc565b602082019050919050565b6000602082019050818103600083015261236181612325565b9050919050565b7f4552433732313a20746f6b656e20616c7265616479206d696e74656400000000600082015250565b600061239e601c836117c3565b91506123a982612368565b602082019050919050565b600060208201905081810360008301526123cd81612391565b9050919050565b600081519050919050565b600082825260208201905092915050565b60006123fb826123d4565b61240581856123df565b93506124158185602086016117d4565b61241e81611807565b840191505092915050565b600060808201905061243e6000830187611908565b61244b6020830186611908565b6124586040830185611a1e565b818103606083015261246a81846123f0565b905095945050505050565b60008151905061248481611729565b92915050565b6000602082840312156124a05761249f6116f3565b5b60006124ae84828501612475565b91505092915050565b60006124c282611873565b91507fffffffffffffffffffffffffffffffffffffffffffffffffffffffffffffffff8214156124f5576124f4612145565b5b600182019050919050565b7f4e487b7100000000000000000000000000000000000000000000000000000000600052601260045260246000fd5b600061253a82611873565b915061254583611873565b92508261255557612554612500565b5b828204905092915050565b600061256b82611873565b915061257683611873565b92508261258657612585612500565b5b828206905092915050565b7f4e487b7100000000000000000000000000000000000000000000000000000000600052603260045260246000fdfea2646970667358221220d8d6e32687d6d1121536a259c9be9763fc16c0fe94e0da3e86a9ab91a7f107a664736f6c63430008090033",
  "linkReferences": {},
  "deployedLinkReferences": {}
}