{
  "_format": "hh-sol-artifact-1",
  "contractName": "StudentSocietyDAO",
  "sourceName": "contracts/StudentSocietyDAO.sol",
  "abi": [
    {
      "inputs": [],
      "stateMutability": "nonpayable",
      "type": "constructor"
    },
    {
      "inputs": [],
      "name": "EndOfProposal",
      "outputs": [],
      "stateMutability": "payable",
      "type": "function"
    },
    {
      "inputs": [
        {
          "internalType": "uint32",
          "name": "proposalIndex",
          "type": "uint32"
        }
      ],
      "name": "GetApprove",
      "outputs": [
        {
          "internalType": "uint256",
          "name": "",
          "type": "uint256"
        }
      ],
      "stateMutability": "view",
      "type": "function"
    },
    {
      "inputs": [],
      "name": "GetBeindex",
      "outputs": [
        {
          "internalType": "uint256",
          "name": "",
          "type": "uint256"
        }
      ],
      "stateMutability": "view",
      "type": "function"
    },
    {
      "inputs": [
        {
          "internalType": "uint32",
          "name": "proposalIndex",
          "type": "uint32"
        }
      ],
      "name": "GetDisapprove",
      "outputs": [
        {
          "internalType": "uint256",
          "name": "",
          "type": "uint256"
        }
      ],
      "stateMutability": "view",
      "type": "function"
    },
    {
      "inputs": [],
      "name": "GetHisProposal",
      "outputs": [
        {
          "components": [
            {
              "internalType": "uint32",
              "name": "index",
              "type": "uint32"
            },
            {
              "internalType": "string",
              "name": "name",
              "type": "string"
            },
            {
              "internalType": "uint256",
              "name": "approval",
              "type": "uint256"
            },
            {
              "internalType": "uint256",
              "name": "disapproval",
              "type": "uint256"
            },
            {
              "internalType": "string",
              "name": "content",
              "type": "string"
            },
            {
              "internalType": "address",
              "name": "proposer",
              "type": "address"
            }
          ],
          "internalType": "struct StudentSocietyDAO.ReProposal[]",
          "name": "",
          "type": "tuple[]"
        }
      ],
      "stateMutability": "view",
      "type": "function"
    },
    {
      "inputs": [],
      "name": "GetHomeaddress",
      "outputs": [
        {
          "internalType": "address",
          "name": "",
          "type": "address"
        }
      ],
      "stateMutability": "view",
      "type": "function"
    },
    {
      "inputs": [],
      "name": "GetProposal",
      "outputs": [
        {
          "components": [
            {
              "internalType": "uint32",
              "name": "index",
              "type": "uint32"
            },
            {
              "internalType": "string",
              "name": "name",
              "type": "string"
            },
            {
              "internalType": "uint256",
              "name": "approval",
              "type": "uint256"
            },
            {
              "internalType": "uint256",
              "name": "disapproval",
              "type": "uint256"
            },
            {
              "internalType": "string",
              "name": "content",
              "type": "string"
            },
            {
              "internalType": "address",
              "name": "proposer",
              "type": "address"
            }
          ],
          "internalType": "struct StudentSocietyDAO.ReProposal[]",
          "name": "",
          "type": "tuple[]"
        }
      ],
      "stateMutability": "view",
      "type": "function"
    },
    {
      "inputs": [],
      "name": "Getindex",
      "outputs": [
        {
          "internalType": "uint256",
          "name": "",
          "type": "uint256"
        }
      ],
      "stateMutability": "view",
      "type": "function"
    },
    {
      "inputs": [],
      "name": "Gift",
      "outputs": [
        {
          "internalType": "contract MyERC721",
          "name": "",
          "type": "address"
        }
      ],
      "stateMutability": "view",
      "type": "function"
    },
    {
      "inputs": [
        {
          "internalType": "string",
          "name": "_name",
          "type": "string"
        },
        {
          "internalType": "string",
          "name": "_content",
          "type": "string"
        }
      ],
      "name": "GiveAProposal",
      "outputs": [],
      "stateMutability": "payable",
      "type": "function"
    },
    {
      "inputs": [
        {
          "internalType": "uint32",
          "name": "proposalIndex",
          "type": "uint32"
        }
      ],
      "name": "GiveAnApproval",
      "outputs": [],
      "stateMutability": "payable",
      "type": "function"
    },
    {
      "inputs": [
        {
          "internalType": "uint32",
          "name": "proposalIndex",
          "type": "uint32"
        }
      ],
      "name": "GiveAnDisapproval",
      "outputs": [],
      "stateMutability": "payable",
      "type": "function"
    },
    {
      "inputs": [],
      "name": "ProposalGas",
      "outputs": [
        {
          "internalType": "uint256",
          "name": "",
          "type": "uint256"
        }
      ],
      "stateMutability": "view",
      "type": "function"
    },
    {
      "inputs": [],
      "name": "ProposalGift",
      "outputs": [
        {
          "internalType": "uint256",
          "name": "",
          "type": "uint256"
        }
      ],
      "stateMutability": "view",
      "type": "function"
    },
    {
      "inputs": [],
      "name": "Proposalvote",
      "outputs": [
        {
          "internalType": "uint256",
          "name": "",
          "type": "uint256"
        }
      ],
      "stateMutability": "view",
      "type": "function"
    },
    {
      "inputs": [],
      "name": "helloworld",
      "outputs": [
        {
          "internalType": "string",
          "name": "",
          "type": "string"
        }
      ],
      "stateMutability": "pure",
      "type": "function"
    },
    {
      "inputs": [],
      "name": "name",
      "outputs": [
        {
          "internalType": "string",
          "name": "",
          "type": "string"
        }
      ],
      "stateMutability": "view",
      "type": "function"
    },
    {
      "inputs": [],
      "name": "studentERC20",
      "outputs": [
        {
          "internalType": "contract MyERC20",
          "name": "",
          "type": "address"
        }
      ],
      "stateMutability": "view",
      "type": "function"
    },
    {
      "inputs": [],
      "name": "symbol",
      "outputs": [
        {
          "internalType": "string",
          "name": "",
          "type": "string"
        }
      ],
      "stateMutability": "view",
      "type": "function"
    }
  ],
  "bytecode": "0x60806040526000600260146101000a81548163ffffffff021916908363ffffffff1602179055506000600260186101000a81548163ffffffff021916908363ffffffff1602179055503480156200005557600080fd5b506040518060400160405280600781526020017f4552435f77717a000000000000000000000000000000000000000000000000008152506040518060400160405280600381526020017f57515a0000000000000000000000000000000000000000000000000000000000815250604051620000d090620001ad565b620000dd9291906200026d565b604051809103906000f080158015620000fa573d6000803e3d6000fd5b50600160006101000a81548173ffffffffffffffffffffffffffffffffffffffff021916908373ffffffffffffffffffffffffffffffffffffffff1602179055506040516200014990620001bb565b604051809103906000f08015801562000166573d6000803e3d6000fd5b50600260006101000a81548173ffffffffffffffffffffffffffffffffffffffff021916908373ffffffffffffffffffffffffffffffffffffffff160217905550620002a8565b611c758062002b8d83390190565b6127d3806200480283390190565b600081519050919050565b600082825260208201905092915050565b60005b8381101562000205578082015181840152602081019050620001e8565b8381111562000215576000848401525b50505050565b6000601f19601f8301169050919050565b60006200023982620001c9565b620002458185620001d4565b935062000257818560208601620001e5565b62000262816200021b565b840191505092915050565b600060408201905081810360008301526200028981856200022c565b905081810360208301526200029f81846200022c565b90509392505050565b6128d580620002b86000396000f3fe6080604052600436106101145760003560e01c8063972b5a0d116100a0578063cac356a611610064578063cac356a614610355578063f06c506c14610392578063f1783947146103bd578063f55edcc8146103d9578063f9972be1146103f557610114565b8063972b5a0d1461027b578063ae1ffbba146102a6578063b92d9370146102c2578063bb75cef3146102ed578063cac0e4d21461032a57610114565b806382cad2f8116100e757806382cad2f8146101a457806389b14491146101cf5780638ccd7278146101fa578063941ac8a91461022557806395d89b411461025057610114565b806306fdde03146101195780632f2f485914610144578063507a55f91461016f5780636c3fbb2d14610179575b600080fd5b34801561012557600080fd5b5061012e610420565b60405161013b9190611de0565b60405180910390f35b34801561015057600080fd5b50610159610459565b6040516101669190611de0565b60405180910390f35b610177610496565b005b34801561018557600080fd5b5061018e6108da565b60405161019b9190611e81565b60405180910390f35b3480156101b057600080fd5b506101b9610900565b6040516101c69190611eb5565b60405180910390f35b3480156101db57600080fd5b506101e4610905565b6040516101f191906120bb565b60405180910390f35b34801561020657600080fd5b5061020f610dee565b60405161021c9190611eb5565b60405180910390f35b34801561023157600080fd5b5061023a610df3565b60405161024791906120ec565b60405180910390f35b34801561025c57600080fd5b50610265610dfb565b6040516102729190611de0565b60405180910390f35b34801561028757600080fd5b50610290610e34565b60405161029d9190611eb5565b60405180910390f35b6102c060048036038101906102bb9190612250565b610e39565b005b3480156102ce57600080fd5b506102d7611113565b6040516102e49190611eb5565b60405180910390f35b3480156102f957600080fd5b50610314600480360381019061030f91906122f4565b611133565b6040516103219190611eb5565b60405180910390f35b34801561033657600080fd5b5061033f611168565b60405161034c91906120bb565b60405180910390f35b34801561036157600080fd5b5061037c600480360381019061037791906122f4565b6115fc565b6040516103899190611eb5565b60405180910390f35b34801561039e57600080fd5b506103a7611631565b6040516103b49190612342565b60405180910390f35b6103d760048036038101906103d291906122f4565b611657565b005b6103f360048036038101906103ee91906122f4565b611914565b005b34801561040157600080fd5b5061040a611bd1565b6040516104179190611eb5565b60405180910390f35b6040518060400160405280600781526020017f4552435f77717a0000000000000000000000000000000000000000000000000081525081565b60606040518060400160405280600b81526020017f68656c6c6f20776f726c64000000000000000000000000000000000000000000815250905090565b6000600260189054906101000a900463ffffffff1663ffffffff1690505b600260149054906101000a900463ffffffff1663ffffffff168110156108d75742600382815481106104e9576104e861235d565b5b9060005260206000209060070201600201546003838154811061050f5761050e61235d565b5b90600052602060002090600702016001015461052b91906123bb565b116108c4576002601881819054906101000a900463ffffffff168092919061055290612411565b91906101000a81548163ffffffff021916908363ffffffff16021790555050600381815481106105855761058461235d565b5b906000526020600020906007020160040154600382815481106105ab576105aa61235d565b5b906000526020600020906007020160050154101561080657600160009054906101000a900473ffffffffffffffffffffffffffffffffffffffff1673ffffffffffffffffffffffffffffffffffffffff1663a9059cbb600383815481106106155761061461235d565b5b906000526020600020906007020160000160049054906101000a900473ffffffffffffffffffffffffffffffffffffffff1660326040518363ffffffff1660e01b815260040161066692919061243e565b602060405180830381600087803b15801561068057600080fd5b505af1158015610694573d6000803e3d6000fd5b505050506040513d601f19601f820116820180604052508101906106b8919061249f565b50600460003373ffffffffffffffffffffffffffffffffffffffff1673ffffffffffffffffffffffffffffffffffffffff1681526020019081526020016000206000815480929190610709906124d6565b91905055506003600460003373ffffffffffffffffffffffffffffffffffffffff1673ffffffffffffffffffffffffffffffffffffffff16815260200190815260200160002054141561080557600260009054906101000a900473ffffffffffffffffffffffffffffffffffffffff1673ffffffffffffffffffffffffffffffffffffffff1663f2fb2120336040518263ffffffff1660e01b81526004016107b191906120ec565b602060405180830381600087803b1580156107cb57600080fd5b505af11580156107df573d6000803e3d6000fd5b505050506040513d601f19601f82011682018060405250810190610803919061254b565b505b5b600160009054906101000a900473ffffffffffffffffffffffffffffffffffffffff1673ffffffffffffffffffffffffffffffffffffffff1663a9059cbb336002603261085391906125a7565b6040518363ffffffff1660e01b815260040161087092919061243e565b602060405180830381600087803b15801561088a57600080fd5b505af115801561089e573d6000803e3d6000fd5b505050506040513d601f19601f820116820180604052508101906108c2919061249f565b505b80806108cf906125d8565b9150506104b4565b50565b600160009054906101000a900473ffffffffffffffffffffffffffffffffffffffff1681565b601e81565b606080600260189054906101000a900463ffffffff16600260149054906101000a900463ffffffff166109389190612621565b63ffffffff1667ffffffffffffffff81111561095757610956612125565b5b60405190808252806020026020018201604052801561099057816020015b61097d611bf1565b8152602001906001900390816109755790505b5090506000600260189054906101000a900463ffffffff1663ffffffff1690505b600260149054906101000a900463ffffffff1663ffffffff16811015610de657600381815481106109e5576109e461235d565b5b906000526020600020906007020160000160009054906101000a900463ffffffff1682600260189054906101000a900463ffffffff1663ffffffff1683610a2c9190612655565b81518110610a3d57610a3c61235d565b5b60200260200101516000019063ffffffff16908163ffffffff168152505060038181548110610a6f57610a6e61235d565b5b90600052602060002090600702016003018054610a8b906126b8565b80601f0160208091040260200160405190810160405280929190818152602001828054610ab7906126b8565b8015610b045780601f10610ad957610100808354040283529160200191610b04565b820191906000526020600020905b815481529060010190602001808311610ae757829003601f168201915b505050505082600260189054906101000a900463ffffffff1663ffffffff1683610b2e9190612655565b81518110610b3f57610b3e61235d565b5b60200260200101516020018190525060038181548110610b6257610b6161235d565b5b90600052602060002090600702016006018054610b7e906126b8565b80601f0160208091040260200160405190810160405280929190818152602001828054610baa906126b8565b8015610bf75780601f10610bcc57610100808354040283529160200191610bf7565b820191906000526020600020905b815481529060010190602001808311610bda57829003601f168201915b505050505082600260189054906101000a900463ffffffff1663ffffffff1683610c219190612655565b81518110610c3257610c3161235d565b5b60200260200101516080018190525060038181548110610c5557610c5461235d565b5b90600052602060002090600702016004015482600260189054906101000a900463ffffffff1663ffffffff1683610c8c9190612655565b81518110610c9d57610c9c61235d565b5b6020026020010151604001818152505060038181548110610cc157610cc061235d565b5b90600052602060002090600702016005015482600260189054906101000a900463ffffffff1663ffffffff1683610cf89190612655565b81518110610d0957610d0861235d565b5b6020026020010151606001818152505060038181548110610d2d57610d2c61235d565b5b906000526020600020906007020160000160049054906101000a900473ffffffffffffffffffffffffffffffffffffffff1682600260189054906101000a900463ffffffff1663ffffffff1683610d849190612655565b81518110610d9557610d9461235d565b5b602002602001015160a0019073ffffffffffffffffffffffffffffffffffffffff16908173ffffffffffffffffffffffffffffffffffffffff16815250508080610dde906125d8565b9150506109b1565b508091505090565b605081565b600030905090565b6040518060400160405280600381526020017f57515a000000000000000000000000000000000000000000000000000000000081525081565b603281565b6000815114158015610e4d57506000825114155b610e8c576040517f08c379a0000000000000000000000000000000000000000000000000000000008152600401610e8390612736565b60405180910390fd5b610e94611c43565b828160800181905250818160e001819052504281604001818152505061012c816060018181525050600260149054906101000a900463ffffffff16816000019063ffffffff16908163ffffffff168152505033816020019073ffffffffffffffffffffffffffffffffffffffff16908173ffffffffffffffffffffffffffffffffffffffff1681525050600381908060018154018082558091505060019003906000526020600020906007020160009091909190915060008201518160000160006101000a81548163ffffffff021916908363ffffffff16021790555060208201518160000160046101000a81548173ffffffffffffffffffffffffffffffffffffffff021916908373ffffffffffffffffffffffffffffffffffffffff16021790555060408201518160010155606082015181600201556080820151816003019080519060200190610fe8929190611ca4565b5060a0820151816004015560c0820151816005015560e0820151816006019080519060200190611019929190611ca4565b5050506001600260149054906101000a900463ffffffff1661103b9190612756565b600260146101000a81548163ffffffff021916908363ffffffff160217905550600160009054906101000a900473ffffffffffffffffffffffffffffffffffffffff1673ffffffffffffffffffffffffffffffffffffffff166323b872dd333060326040518463ffffffff1660e01b81526004016110bb93929190612790565b602060405180830381600087803b1580156110d557600080fd5b505af11580156110e9573d6000803e3d6000fd5b505050506040513d601f19601f8201168201806040525081019061110d919061249f565b50505050565b6000600260149054906101000a900463ffffffff1663ffffffff16905090565b600060038263ffffffff168154811061114f5761114e61235d565b5b9060005260206000209060070201600401549050919050565b606080600260149054906101000a900463ffffffff1663ffffffff1667ffffffffffffffff81111561119d5761119c612125565b5b6040519080825280602002602001820160405280156111d657816020015b6111c3611bf1565b8152602001906001900390816111bb5790505b50905060005b600260149054906101000a900463ffffffff1663ffffffff168110156115f45742600382815481106112115761121061235d565b5b906000526020600020906007020160020154600383815481106112375761123661235d565b5b90600052602060002090600702016001015461125391906123bb565b11156112b0576402540be3ff8282815181106112725761127161235d565b5b602002602001015160400181815250506402540be3ff82828151811061129b5761129a61235d565b5b60200260200101516060018181525050611343565b600381815481106112c4576112c361235d565b5b9060005260206000209060070201600401548282815181106112e9576112e861235d565b5b602002602001015160400181815250506003818154811061130d5761130c61235d565b5b9060005260206000209060070201600501548282815181106113325761133161235d565b5b602002602001015160600181815250505b600381815481106113575761135661235d565b5b906000526020600020906007020160000160009054906101000a900463ffffffff1682828151811061138c5761138b61235d565b5b60200260200101516000019063ffffffff16908163ffffffff1681525050600381815481106113be576113bd61235d565b5b906000526020600020906007020160030180546113da906126b8565b80601f0160208091040260200160405190810160405280929190818152602001828054611406906126b8565b80156114535780601f1061142857610100808354040283529160200191611453565b820191906000526020600020905b81548152906001019060200180831161143657829003601f168201915b505050505082828151811061146b5761146a61235d565b5b6020026020010151602001819052506003818154811061148e5761148d61235d565b5b906000526020600020906007020160060180546114aa906126b8565b80601f01602080910402602001604051908101604052809291908181526020018280546114d6906126b8565b80156115235780601f106114f857610100808354040283529160200191611523565b820191906000526020600020905b81548152906001019060200180831161150657829003601f168201915b505050505082828151811061153b5761153a61235d565b5b6020026020010151608001819052506003818154811061155e5761155d61235d565b5b906000526020600020906007020160000160049054906101000a900473ffffffffffffffffffffffffffffffffffffffff168282815181106115a3576115a261235d565b5b602002602001015160a0019073ffffffffffffffffffffffffffffffffffffffff16908173ffffffffffffffffffffffffffffffffffffffff168152505080806115ec906125d8565b9150506111dc565b508091505090565b600060038263ffffffff16815481106116185761161761235d565b5b9060005260206000209060070201600501549050919050565b600260009054906101000a900473ffffffffffffffffffffffffffffffffffffffff1681565b4260038263ffffffff16815481106116725761167161235d565b5b90600052602060002090600702016002015460038363ffffffff168154811061169e5761169d61235d565b5b9060005260206000209060070201600101546116ba91906123bb565b116116fa576040517f08c379a00000000000000000000000000000000000000000000000000000000081526004016116f190612813565b60405180910390fd5b600015156000803373ffffffffffffffffffffffffffffffffffffffff1673ffffffffffffffffffffffffffffffffffffffff16815260200190815260200160002060008363ffffffff1663ffffffff16815260200190815260200160002060009054906101000a900460ff161515146117a9576040517f08c379a00000000000000000000000000000000000000000000000000000000081526004016117a09061287f565b60405180910390fd5b60038163ffffffff16815481106117c3576117c261235d565b5b906000526020600020906007020160040160008154809291906117e5906125d8565b919050555060016000803373ffffffffffffffffffffffffffffffffffffffff1673ffffffffffffffffffffffffffffffffffffffff16815260200190815260200160002060008363ffffffff1663ffffffff16815260200190815260200160002060006101000a81548160ff021916908315150217905550600160009054906101000a900473ffffffffffffffffffffffffffffffffffffffff1673ffffffffffffffffffffffffffffffffffffffff166323b872dd3330601e6040518463ffffffff1660e01b81526004016118be93929190612790565b602060405180830381600087803b1580156118d857600080fd5b505af11580156118ec573d6000803e3d6000fd5b505050506040513d601f19601f82011682018060405250810190611910919061249f565b5050565b4260038263ffffffff168154811061192f5761192e61235d565b5b90600052602060002090600702016002015460038363ffffffff168154811061195b5761195a61235d565b5b90600052602060002090600702016001015461197791906123bb565b116119b7576040517f08c379a00000000000000000000000000000000000000000000000000000000081526004016119ae90612813565b60405180910390fd5b600015156000803373ffffffffffffffffffffffffffffffffffffffff1673ffffffffffffffffffffffffffffffffffffffff16815260200190815260200160002060008363ffffffff1663ffffffff16815260200190815260200160002060009054906101000a900460ff16151514611a66576040517f08c379a0000000000000000000000000000000000000000000000000000000008152600401611a5d9061287f565b60405180910390fd5b60038163ffffffff1681548110611a8057611a7f61235d565b5b90600052602060002090600702016005016000815480929190611aa2906125d8565b919050555060016000803373ffffffffffffffffffffffffffffffffffffffff1673ffffffffffffffffffffffffffffffffffffffff16815260200190815260200160002060008363ffffffff1663ffffffff16815260200190815260200160002060006101000a81548160ff021916908315150217905550600160009054906101000a900473ffffffffffffffffffffffffffffffffffffffff1673ffffffffffffffffffffffffffffffffffffffff166323b872dd3330601e6040518463ffffffff1660e01b8152600401611b7b93929190612790565b602060405180830381600087803b158015611b9557600080fd5b505af1158015611ba9573d6000803e3d6000fd5b505050506040513d601f19601f82011682018060405250810190611bcd919061249f565b5050565b6000600260189054906101000a900463ffffffff1663ffffffff16905090565b6040518060c00160405280600063ffffffff16815260200160608152602001600081526020016000815260200160608152602001600073ffffffffffffffffffffffffffffffffffffffff1681525090565b604051806101000160405280600063ffffffff168152602001600073ffffffffffffffffffffffffffffffffffffffff1681526020016000815260200160008152602001606081526020016000815260200160008152602001606081525090565b828054611cb0906126b8565b90600052602060002090601f016020900481019282611cd25760008555611d19565b82601f10611ceb57805160ff1916838001178555611d19565b82800160010185558215611d19579182015b82811115611d18578251825591602001919060010190611cfd565b5b509050611d269190611d2a565b5090565b5b80821115611d43576000816000905550600101611d2b565b5090565b600081519050919050565b600082825260208201905092915050565b60005b83811015611d81578082015181840152602081019050611d66565b83811115611d90576000848401525b50505050565b6000601f19601f8301169050919050565b6000611db282611d47565b611dbc8185611d52565b9350611dcc818560208601611d63565b611dd581611d96565b840191505092915050565b60006020820190508181036000830152611dfa8184611da7565b905092915050565b600073ffffffffffffffffffffffffffffffffffffffff82169050919050565b6000819050919050565b6000611e47611e42611e3d84611e02565b611e22565b611e02565b9050919050565b6000611e5982611e2c565b9050919050565b6000611e6b82611e4e565b9050919050565b611e7b81611e60565b82525050565b6000602082019050611e966000830184611e72565b92915050565b6000819050919050565b611eaf81611e9c565b82525050565b6000602082019050611eca6000830184611ea6565b92915050565b600081519050919050565b600082825260208201905092915050565b6000819050602082019050919050565b600063ffffffff82169050919050565b611f1581611efc565b82525050565b600082825260208201905092915050565b6000611f3782611d47565b611f418185611f1b565b9350611f51818560208601611d63565b611f5a81611d96565b840191505092915050565b611f6e81611e9c565b82525050565b6000611f7f82611e02565b9050919050565b611f8f81611f74565b82525050565b600060c083016000830151611fad6000860182611f0c565b5060208301518482036020860152611fc58282611f2c565b9150506040830151611fda6040860182611f65565b506060830151611fed6060860182611f65565b50608083015184820360808601526120058282611f2c565b91505060a083015161201a60a0860182611f86565b508091505092915050565b60006120318383611f95565b905092915050565b6000602082019050919050565b600061205182611ed0565b61205b8185611edb565b93508360208202850161206d85611eec565b8060005b858110156120a9578484038952815161208a8582612025565b945061209583612039565b925060208a01995050600181019050612071565b50829750879550505050505092915050565b600060208201905081810360008301526120d58184612046565b905092915050565b6120e681611f74565b82525050565b600060208201905061210160008301846120dd565b92915050565b6000604051905090565b600080fd5b600080fd5b600080fd5b600080fd5b7f4e487b7100000000000000000000000000000000000000000000000000000000600052604160045260246000fd5b61215d82611d96565b810181811067ffffffffffffffff8211171561217c5761217b612125565b5b80604052505050565b600061218f612107565b905061219b8282612154565b919050565b600067ffffffffffffffff8211156121bb576121ba612125565b5b6121c482611d96565b9050602081019050919050565b82818337600083830152505050565b60006121f36121ee846121a0565b612185565b90508281526020810184848401111561220f5761220e612120565b5b61221a8482856121d1565b509392505050565b600082601f8301126122375761223661211b565b5b81356122478482602086016121e0565b91505092915050565b6000806040838503121561226757612266612111565b5b600083013567ffffffffffffffff81111561228557612284612116565b5b61229185828601612222565b925050602083013567ffffffffffffffff8111156122b2576122b1612116565b5b6122be85828601612222565b9150509250929050565b6122d181611efc565b81146122dc57600080fd5b50565b6000813590506122ee816122c8565b92915050565b60006020828403121561230a57612309612111565b5b6000612318848285016122df565b91505092915050565b600061232c82611e4e565b9050919050565b61233c81612321565b82525050565b60006020820190506123576000830184612333565b92915050565b7f4e487b7100000000000000000000000000000000000000000000000000000000600052603260045260246000fd5b7f4e487b7100000000000000000000000000000000000000000000000000000000600052601160045260246000fd5b60006123c682611e9c565b91506123d183611e9c565b9250827fffffffffffffffffffffffffffffffffffffffffffffffffffffffffffffffff038211156124065761240561238c565b5b828201905092915050565b600061241c82611efc565b915063ffffffff8214156124335761243261238c565b5b600182019050919050565b600060408201905061245360008301856120dd565b6124606020830184611ea6565b9392505050565b60008115159050919050565b61247c81612467565b811461248757600080fd5b50565b60008151905061249981612473565b92915050565b6000602082840312156124b5576124b4612111565b5b60006124c38482850161248a565b91505092915050565b6000819050919050565b60006124e1826124cc565b91507f7fffffffffffffffffffffffffffffffffffffffffffffffffffffffffffffff8214156125145761251361238c565b5b600182019050919050565b61252881611e9c565b811461253357600080fd5b50565b6000815190506125458161251f565b92915050565b60006020828403121561256157612560612111565b5b600061256f84828501612536565b91505092915050565b7f4e487b7100000000000000000000000000000000000000000000000000000000600052601260045260246000fd5b60006125b282611e9c565b91506125bd83611e9c565b9250826125cd576125cc612578565b5b828204905092915050565b60006125e382611e9c565b91507fffffffffffffffffffffffffffffffffffffffffffffffffffffffffffffffff8214156126165761261561238c565b5b600182019050919050565b600061262c82611efc565b915061263783611efc565b92508282101561264a5761264961238c565b5b828203905092915050565b600061266082611e9c565b915061266b83611e9c565b92508282101561267e5761267d61238c565b5b828203905092915050565b7f4e487b7100000000000000000000000000000000000000000000000000000000600052602260045260246000fd5b600060028204905060018216806126d057607f821691505b602082108114156126e4576126e3612689565b5b50919050565b7f506c6561736520636f6d706c65746520796f75722070726f706f73616c000000600082015250565b6000612720601d83611d52565b915061272b826126ea565b602082019050919050565b6000602082019050818103600083015261274f81612713565b9050919050565b600061276182611efc565b915061276c83611efc565b92508263ffffffff038211156127855761278461238c565b5b828201905092915050565b60006060820190506127a560008301866120dd565b6127b260208301856120dd565b6127bf6040830184611ea6565b949350505050565b7f5468652070726f706f73616c206973207465726d696e61746564000000000000600082015250565b60006127fd601a83611d52565b9150612808826127c7565b602082019050919050565b6000602082019050818103600083015261282c816127f0565b9050919050565b7f4f6e6520706572736f6e2063616e20766f7465206f6e6c79206f6e6365210000600082015250565b6000612869601e83611d52565b915061287482612833565b602082019050919050565b600060208201905081810360008301526128988161285c565b905091905056fea26469706673582212202e9133764fb063fbe57a577dba6894df4cea620b968d7de9affd19ed1d0f507364736f6c634300080900336080604052620f42406005553480156200001857600080fd5b5060405162001c7538038062001c7583398181016040528101906200003e919062000460565b818181600390805190602001906200005892919062000213565b5080600490805190602001906200007192919062000213565b50505062000088336005546200009060201b60201c565b505062000691565b600073ffffffffffffffffffffffffffffffffffffffff168273ffffffffffffffffffffffffffffffffffffffff16141562000103576040517f08c379a0000000000000000000000000000000000000000000000000000000008152600401620000fa9062000546565b60405180910390fd5b62000117600083836200020960201b60201c565b80600260008282546200012b9190620005a1565b92505081905550806000808473ffffffffffffffffffffffffffffffffffffffff1673ffffffffffffffffffffffffffffffffffffffff1681526020019081526020016000206000828254620001829190620005a1565b925050819055508173ffffffffffffffffffffffffffffffffffffffff16600073ffffffffffffffffffffffffffffffffffffffff167fddf252ad1be2c89b69c2b068fc378daa952ba7f163c4a11628f55a4df523b3ef83604051620001e991906200060f565b60405180910390a362000205600083836200020e60201b60201c565b5050565b505050565b505050565b82805462000221906200065b565b90600052602060002090601f01602090048101928262000245576000855562000291565b82601f106200026057805160ff191683800117855562000291565b8280016001018555821562000291579182015b828111156200029057825182559160200191906001019062000273565b5b509050620002a09190620002a4565b5090565b5b80821115620002bf576000816000905550600101620002a5565b5090565b6000604051905090565b600080fd5b600080fd5b600080fd5b600080fd5b6000601f19601f8301169050919050565b7f4e487b7100000000000000000000000000000000000000000000000000000000600052604160045260246000fd5b6200032c82620002e1565b810181811067ffffffffffffffff821117156200034e576200034d620002f2565b5b80604052505050565b600062000363620002c3565b905062000371828262000321565b919050565b600067ffffffffffffffff821115620003945762000393620002f2565b5b6200039f82620002e1565b9050602081019050919050565b60005b83811015620003cc578082015181840152602081019050620003af565b83811115620003dc576000848401525b50505050565b6000620003f9620003f38462000376565b62000357565b905082815260208101848484011115620004185762000417620002dc565b5b62000425848285620003ac565b509392505050565b600082601f830112620004455762000444620002d7565b5b815162000457848260208601620003e2565b91505092915050565b600080604083850312156200047a5762000479620002cd565b5b600083015167ffffffffffffffff8111156200049b576200049a620002d2565b5b620004a9858286016200042d565b925050602083015167ffffffffffffffff811115620004cd57620004cc620002d2565b5b620004db858286016200042d565b9150509250929050565b600082825260208201905092915050565b7f45524332303a206d696e7420746f20746865207a65726f206164647265737300600082015250565b60006200052e601f83620004e5565b91506200053b82620004f6565b602082019050919050565b6000602082019050818103600083015262000561816200051f565b9050919050565b6000819050919050565b7f4e487b7100000000000000000000000000000000000000000000000000000000600052601160045260246000fd5b6000620005ae8262000568565b9150620005bb8362000568565b9250827fffffffffffffffffffffffffffffffffffffffffffffffffffffffffffffffff03821115620005f357620005f262000572565b5b828201905092915050565b620006098162000568565b82525050565b6000602082019050620006266000830184620005fe565b92915050565b7f4e487b7100000000000000000000000000000000000000000000000000000000600052602260045260246000fd5b600060028204905060018216806200067457607f821691505b602082108114156200068b576200068a6200062c565b5b50919050565b6115d480620006a16000396000f3fe608060405234801561001057600080fd5b50600436106100b45760003560e01c80633950935111610071578063395093511461017d57806370a08231146101ad57806395d89b41146101dd578063a457c2d7146101fb578063a9059cbb1461022b578063dd62ed3e1461025b576100b4565b806306fdde03146100b9578063095ea7b3146100d757806318160ddd1461010757806323b872dd14610125578063313ce567146101555780633884d63514610173575b600080fd5b6100c161028b565b6040516100ce9190610d90565b60405180910390f35b6100f160048036038101906100ec9190610e4b565b61031d565b6040516100fe9190610ea6565b60405180910390f35b61010f610340565b60405161011c9190610ed0565b60405180910390f35b61013f600480360381019061013a9190610eeb565b61034a565b60405161014c9190610ea6565b60405180910390f35b61015d610379565b60405161016a9190610f5a565b60405180910390f35b61017b610382565b005b61019760048036038101906101929190610e4b565b61047b565b6040516101a49190610ea6565b60405180910390f35b6101c760048036038101906101c29190610f75565b6104b2565b6040516101d49190610ed0565b60405180910390f35b6101e56104fa565b6040516101f29190610d90565b60405180910390f35b61021560048036038101906102109190610e4b565b61058c565b6040516102229190610ea6565b60405180910390f35b61024560048036038101906102409190610e4b565b610603565b6040516102529190610ea6565b60405180910390f35b61027560048036038101906102709190610fa2565b610626565b6040516102829190610ed0565b60405180910390f35b60606003805461029a90611011565b80601f01602080910402602001604051908101604052809291908181526020018280546102c690611011565b80156103135780601f106102e857610100808354040283529160200191610313565b820191906000526020600020905b8154815290600101906020018083116102f657829003601f168201915b5050505050905090565b6000806103286106ad565b90506103358185856106b5565b600191505092915050565b6000600254905090565b6000806103556106ad565b9050610362858285610880565b61036d85858561090c565b60019150509392505050565b60006012905090565b60001515600660003373ffffffffffffffffffffffffffffffffffffffff1673ffffffffffffffffffffffffffffffffffffffff16815260200190815260200160002060009054906101000a900460ff16151514610415576040517f08c379a000000000000000000000000000000000000000000000000000000000815260040161040c906110b5565b60405180910390fd5b610421336103e8610b8d565b6001600660003373ffffffffffffffffffffffffffffffffffffffff1673ffffffffffffffffffffffffffffffffffffffff16815260200190815260200160002060006101000a81548160ff021916908315150217905550565b6000806104866106ad565b90506104a78185856104988589610626565b6104a29190611104565b6106b5565b600191505092915050565b60008060008373ffffffffffffffffffffffffffffffffffffffff1673ffffffffffffffffffffffffffffffffffffffff168152602001908152602001600020549050919050565b60606004805461050990611011565b80601f016020809104026020016040519081016040528092919081815260200182805461053590611011565b80156105825780601f1061055757610100808354040283529160200191610582565b820191906000526020600020905b81548152906001019060200180831161056557829003601f168201915b5050505050905090565b6000806105976106ad565b905060006105a58286610626565b9050838110156105ea576040517f08c379a00000000000000000000000000000000000000000000000000000000081526004016105e1906111cc565b60405180910390fd5b6105f782868684036106b5565b60019250505092915050565b60008061060e6106ad565b905061061b81858561090c565b600191505092915050565b6000600160008473ffffffffffffffffffffffffffffffffffffffff1673ffffffffffffffffffffffffffffffffffffffff16815260200190815260200160002060008373ffffffffffffffffffffffffffffffffffffffff1673ffffffffffffffffffffffffffffffffffffffff16815260200190815260200160002054905092915050565b600033905090565b600073ffffffffffffffffffffffffffffffffffffffff168373ffffffffffffffffffffffffffffffffffffffff161415610725576040517f08c379a000000000000000000000000000000000000000000000000000000000815260040161071c9061125e565b60405180910390fd5b600073ffffffffffffffffffffffffffffffffffffffff168273ffffffffffffffffffffffffffffffffffffffff161415610795576040517f08c379a000000000000000000000000000000000000000000000000000000000815260040161078c906112f0565b60405180910390fd5b80600160008573ffffffffffffffffffffffffffffffffffffffff1673ffffffffffffffffffffffffffffffffffffffff16815260200190815260200160002060008473ffffffffffffffffffffffffffffffffffffffff1673ffffffffffffffffffffffffffffffffffffffff168152602001908152602001600020819055508173ffffffffffffffffffffffffffffffffffffffff168373ffffffffffffffffffffffffffffffffffffffff167f8c5be1e5ebec7d5bd14f71427d1e84f3dd0314c0f7b2291e5b200ac8c7c3b925836040516108739190610ed0565b60405180910390a3505050565b600061088c8484610626565b90507fffffffffffffffffffffffffffffffffffffffffffffffffffffffffffffffff811461090657818110156108f8576040517f08c379a00000000000000000000000000000000000000000000000000000000081526004016108ef9061135c565b60405180910390fd5b61090584848484036106b5565b5b50505050565b600073ffffffffffffffffffffffffffffffffffffffff168373ffffffffffffffffffffffffffffffffffffffff16141561097c576040517f08c379a0000000000000000000000000000000000000000000000000000000008152600401610973906113ee565b60405180910390fd5b600073ffffffffffffffffffffffffffffffffffffffff168273ffffffffffffffffffffffffffffffffffffffff1614156109ec576040517f08c379a00000000000000000000000000000000000000000000000000000000081526004016109e390611480565b60405180910390fd5b6109f7838383610ced565b60008060008573ffffffffffffffffffffffffffffffffffffffff1673ffffffffffffffffffffffffffffffffffffffff16815260200190815260200160002054905081811015610a7d576040517f08c379a0000000000000000000000000000000000000000000000000000000008152600401610a7490611512565b60405180910390fd5b8181036000808673ffffffffffffffffffffffffffffffffffffffff1673ffffffffffffffffffffffffffffffffffffffff16815260200190815260200160002081905550816000808573ffffffffffffffffffffffffffffffffffffffff1673ffffffffffffffffffffffffffffffffffffffff1681526020019081526020016000206000828254610b109190611104565b925050819055508273ffffffffffffffffffffffffffffffffffffffff168473ffffffffffffffffffffffffffffffffffffffff167fddf252ad1be2c89b69c2b068fc378daa952ba7f163c4a11628f55a4df523b3ef84604051610b749190610ed0565b60405180910390a3610b87848484610cf2565b50505050565b600073ffffffffffffffffffffffffffffffffffffffff168273ffffffffffffffffffffffffffffffffffffffff161415610bfd576040517f08c379a0000000000000000000000000000000000000000000000000000000008152600401610bf49061157e565b60405180910390fd5b610c0960008383610ced565b8060026000828254610c1b9190611104565b92505081905550806000808473ffffffffffffffffffffffffffffffffffffffff1673ffffffffffffffffffffffffffffffffffffffff1681526020019081526020016000206000828254610c709190611104565b925050819055508173ffffffffffffffffffffffffffffffffffffffff16600073ffffffffffffffffffffffffffffffffffffffff167fddf252ad1be2c89b69c2b068fc378daa952ba7f163c4a11628f55a4df523b3ef83604051610cd59190610ed0565b60405180910390a3610ce960008383610cf2565b5050565b505050565b505050565b600081519050919050565b600082825260208201905092915050565b60005b83811015610d31578082015181840152602081019050610d16565b83811115610d40576000848401525b50505050565b6000601f19601f8301169050919050565b6000610d6282610cf7565b610d6c8185610d02565b9350610d7c818560208601610d13565b610d8581610d46565b840191505092915050565b60006020820190508181036000830152610daa8184610d57565b905092915050565b600080fd5b600073ffffffffffffffffffffffffffffffffffffffff82169050919050565b6000610de282610db7565b9050919050565b610df281610dd7565b8114610dfd57600080fd5b50565b600081359050610e0f81610de9565b92915050565b6000819050919050565b610e2881610e15565b8114610e3357600080fd5b50565b600081359050610e4581610e1f565b92915050565b60008060408385031215610e6257610e61610db2565b5b6000610e7085828601610e00565b9250506020610e8185828601610e36565b9150509250929050565b60008115159050919050565b610ea081610e8b565b82525050565b6000602082019050610ebb6000830184610e97565b92915050565b610eca81610e15565b82525050565b6000602082019050610ee56000830184610ec1565b92915050565b600080600060608486031215610f0457610f03610db2565b5b6000610f1286828701610e00565b9350506020610f2386828701610e00565b9250506040610f3486828701610e36565b9150509250925092565b600060ff82169050919050565b610f5481610f3e565b82525050565b6000602082019050610f6f6000830184610f4b565b92915050565b600060208284031215610f8b57610f8a610db2565b5b6000610f9984828501610e00565b91505092915050565b60008060408385031215610fb957610fb8610db2565b5b6000610fc785828601610e00565b9250506020610fd885828601610e00565b9150509250929050565b7f4e487b7100000000000000000000000000000000000000000000000000000000600052602260045260246000fd5b6000600282049050600182168061102957607f821691505b6020821081141561103d5761103c610fe2565b5b50919050565b7f5468697320757365722068617320636c61696d65642061697264726f7020616c60008201527f7265616479000000000000000000000000000000000000000000000000000000602082015250565b600061109f602583610d02565b91506110aa82611043565b604082019050919050565b600060208201905081810360008301526110ce81611092565b9050919050565b7f4e487b7100000000000000000000000000000000000000000000000000000000600052601160045260246000fd5b600061110f82610e15565b915061111a83610e15565b9250827fffffffffffffffffffffffffffffffffffffffffffffffffffffffffffffffff0382111561114f5761114e6110d5565b5b828201905092915050565b7f45524332303a2064656372656173656420616c6c6f77616e63652062656c6f7760008201527f207a65726f000000000000000000000000000000000000000000000000000000602082015250565b60006111b6602583610d02565b91506111c18261115a565b604082019050919050565b600060208201905081810360008301526111e5816111a9565b9050919050565b7f45524332303a20617070726f76652066726f6d20746865207a65726f2061646460008201527f7265737300000000000000000000000000000000000000000000000000000000602082015250565b6000611248602483610d02565b9150611253826111ec565b604082019050919050565b600060208201905081810360008301526112778161123b565b9050919050565b7f45524332303a20617070726f766520746f20746865207a65726f20616464726560008201527f7373000000000000000000000000000000000000000000000000000000000000602082015250565b60006112da602283610d02565b91506112e58261127e565b604082019050919050565b60006020820190508181036000830152611309816112cd565b9050919050565b7f45524332303a20696e73756666696369656e7420616c6c6f77616e6365000000600082015250565b6000611346601d83610d02565b915061135182611310565b602082019050919050565b6000602082019050818103600083015261137581611339565b9050919050565b7f45524332303a207472616e736665722066726f6d20746865207a65726f20616460008201527f6472657373000000000000000000000000000000000000000000000000000000602082015250565b60006113d8602583610d02565b91506113e38261137c565b604082019050919050565b60006020820190508181036000830152611407816113cb565b9050919050565b7f45524332303a207472616e7366657220746f20746865207a65726f206164647260008201527f6573730000000000000000000000000000000000000000000000000000000000602082015250565b600061146a602383610d02565b91506114758261140e565b604082019050919050565b600060208201905081810360008301526114998161145d565b9050919050565b7f45524332303a207472616e7366657220616d6f756e742065786365656473206260008201527f616c616e63650000000000000000000000000000000000000000000000000000602082015250565b60006114fc602683610d02565b9150611507826114a0565b604082019050919050565b6000602082019050818103600083015261152b816114ef565b9050919050565b7f45524332303a206d696e7420746f20746865207a65726f206164647265737300600082015250565b6000611568601f83610d02565b915061157382611532565b602082019050919050565b600060208201905081810360008301526115978161155b565b905091905056fea264697066735822122031b9251d67a48374e0f042a682489e968104463e620640e084e122e8bb9c02e164736f6c6343000809003360806040523480156200001157600080fd5b506040518060400160405280600381526020017f57717a00000000000000000000000000000000000000000000000000000000008152506040518060400160405280600481526020017f4769667400000000000000000000000000000000000000000000000000000000815250816000908051906020019062000096929190620000b8565b508060019080519060200190620000af929190620000b8565b505050620001cd565b828054620000c69062000197565b90600052602060002090601f016020900481019282620000ea576000855562000136565b82601f106200010557805160ff191683800117855562000136565b8280016001018555821562000136579182015b828111156200013557825182559160200191906001019062000118565b5b50905062000145919062000149565b5090565b5b80821115620001645760008160009055506001016200014a565b5090565b7f4e487b7100000000000000000000000000000000000000000000000000000000600052602260045260246000fd5b60006002820490506001821680620001b057607f821691505b60208210811415620001c757620001c662000168565b5b50919050565b6125f680620001dd6000396000f3fe608060405234801561001057600080fd5b50600436106100ea5760003560e01c806370a082311161008c578063b88d4fde11610066578063b88d4fde1461025b578063c87b56dd14610277578063e985e9c5146102a7578063f2fb2120146102d7576100ea565b806370a08231146101f157806395d89b4114610221578063a22cb4651461023f576100ea565b8063095ea7b3116100c8578063095ea7b31461016d57806323b872dd1461018957806342842e0e146101a55780636352211e146101c1576100ea565b806301ffc9a7146100ef57806306fdde031461011f578063081812fc1461013d575b600080fd5b61010960048036038101906101049190611755565b610307565b604051610116919061179d565b60405180910390f35b6101276103e9565b6040516101349190611851565b60405180910390f35b610157600480360381019061015291906118a9565b61047b565b6040516101649190611917565b60405180910390f35b6101876004803603810190610182919061195e565b6104c1565b005b6101a3600480360381019061019e919061199e565b6105d9565b005b6101bf60048036038101906101ba919061199e565b610639565b005b6101db60048036038101906101d691906118a9565b610659565b6040516101e89190611917565b60405180910390f35b61020b600480360381019061020691906119f1565b61070b565b6040516102189190611a2d565b60405180910390f35b6102296107c3565b6040516102369190611851565b60405180910390f35b61025960048036038101906102549190611a74565b610855565b005b61027560048036038101906102709190611be9565b61086b565b005b610291600480360381019061028c91906118a9565b6108cd565b60405161029e9190611851565b60405180910390f35b6102c160048036038101906102bc9190611c6c565b6109e0565b6040516102ce919061179d565b60405180910390f35b6102f160048036038101906102ec91906119f1565b610a74565b6040516102fe9190611a2d565b60405180910390f35b60007f80ac58cd000000000000000000000000000000000000000000000000000000007bffffffffffffffffffffffffffffffffffffffffffffffffffffffff1916827bffffffffffffffffffffffffffffffffffffffffffffffffffffffff191614806103d257507f5b5e139f000000000000000000000000000000000000000000000000000000007bffffffffffffffffffffffffffffffffffffffffffffffffffffffff1916827bffffffffffffffffffffffffffffffffffffffffffffffffffffffff1916145b806103e257506103e182610aa0565b5b9050919050565b6060600080546103f890611cdb565b80601f016020809104026020016040519081016040528092919081815260200182805461042490611cdb565b80156104715780601f1061044657610100808354040283529160200191610471565b820191906000526020600020905b81548152906001019060200180831161045457829003601f168201915b5050505050905090565b600061048682610b0a565b6004600083815260200190815260200160002060009054906101000a900473ffffffffffffffffffffffffffffffffffffffff169050919050565b60006104cc82610659565b90508073ffffffffffffffffffffffffffffffffffffffff168373ffffffffffffffffffffffffffffffffffffffff16141561053d576040517f08c379a000000000000000000000000000000000000000000000000000000000815260040161053490611d7f565b60405180910390fd5b8073ffffffffffffffffffffffffffffffffffffffff1661055c610b55565b73ffffffffffffffffffffffffffffffffffffffff16148061058b575061058a81610585610b55565b6109e0565b5b6105ca576040517f08c379a00000000000000000000000000000000000000000000000000000000081526004016105c190611e11565b60405180910390fd5b6105d48383610b5d565b505050565b6105ea6105e4610b55565b82610c16565b610629576040517f08c379a000000000000000000000000000000000000000000000000000000000815260040161062090611ea3565b60405180910390fd5b610634838383610cab565b505050565b6106548383836040518060200160405280600081525061086b565b505050565b6000806002600084815260200190815260200160002060009054906101000a900473ffffffffffffffffffffffffffffffffffffffff169050600073ffffffffffffffffffffffffffffffffffffffff168173ffffffffffffffffffffffffffffffffffffffff161415610702576040517f08c379a00000000000000000000000000000000000000000000000000000000081526004016106f990611f0f565b60405180910390fd5b80915050919050565b60008073ffffffffffffffffffffffffffffffffffffffff168273ffffffffffffffffffffffffffffffffffffffff16141561077c576040517f08c379a000000000000000000000000000000000000000000000000000000000815260040161077390611fa1565b60405180910390fd5b600360008373ffffffffffffffffffffffffffffffffffffffff1673ffffffffffffffffffffffffffffffffffffffff168152602001908152602001600020549050919050565b6060600180546107d290611cdb565b80601f01602080910402602001604051908101604052809291908181526020018280546107fe90611cdb565b801561084b5780601f106108205761010080835404028352916020019161084b565b820191906000526020600020905b81548152906001019060200180831161082e57829003601f168201915b5050505050905090565b610867610860610b55565b8383610f12565b5050565b61087c610876610b55565b83610c16565b6108bb576040517f08c379a00000000000000000000000000000000000000000000000000000000081526004016108b290611ea3565b60405180910390fd5b6108c78484848461107f565b50505050565b60606108d882610b0a565b60006006600084815260200190815260200160002080546108f890611cdb565b80601f016020809104026020016040519081016040528092919081815260200182805461092490611cdb565b80156109715780601f1061094657610100808354040283529160200191610971565b820191906000526020600020905b81548152906001019060200180831161095457829003601f168201915b5050505050905060006109826110db565b90506000815114156109985781925050506109db565b6000825111156109cd5780826040516020016109b5929190611ffd565b604051602081830303815290604052925050506109db565b6109d6846110f2565b925050505b919050565b6000600560008473ffffffffffffffffffffffffffffffffffffffff1673ffffffffffffffffffffffffffffffffffffffff16815260200190815260200160002060008373ffffffffffffffffffffffffffffffffffffffff1673ffffffffffffffffffffffffffffffffffffffff16815260200190815260200160002060009054906101000a900460ff16905092915050565b600080610a81600761115a565b9050610a8d8382611168565b610a976007611342565b80915050919050565b60007f01ffc9a7000000000000000000000000000000000000000000000000000000007bffffffffffffffffffffffffffffffffffffffffffffffffffffffff1916827bffffffffffffffffffffffffffffffffffffffffffffffffffffffff1916149050919050565b610b1381611358565b610b52576040517f08c379a0000000000000000000000000000000000000000000000000000000008152600401610b4990611f0f565b60405180910390fd5b50565b600033905090565b816004600083815260200190815260200160002060006101000a81548173ffffffffffffffffffffffffffffffffffffffff021916908373ffffffffffffffffffffffffffffffffffffffff160217905550808273ffffffffffffffffffffffffffffffffffffffff16610bd083610659565b73ffffffffffffffffffffffffffffffffffffffff167f8c5be1e5ebec7d5bd14f71427d1e84f3dd0314c0f7b2291e5b200ac8c7c3b92560405160405180910390a45050565b600080610c2283610659565b90508073ffffffffffffffffffffffffffffffffffffffff168473ffffffffffffffffffffffffffffffffffffffff161480610c645750610c6381856109e0565b5b80610ca257508373ffffffffffffffffffffffffffffffffffffffff16610c8a8461047b565b73ffffffffffffffffffffffffffffffffffffffff16145b91505092915050565b8273ffffffffffffffffffffffffffffffffffffffff16610ccb82610659565b73ffffffffffffffffffffffffffffffffffffffff1614610d21576040517f08c379a0000000000000000000000000000000000000000000000000000000008152600401610d1890612093565b60405180910390fd5b600073ffffffffffffffffffffffffffffffffffffffff168273ffffffffffffffffffffffffffffffffffffffff161415610d91576040517f08c379a0000000000000000000000000000000000000000000000000000000008152600401610d8890612125565b60405180910390fd5b610d9c8383836113c4565b610da7600082610b5d565b6001600360008573ffffffffffffffffffffffffffffffffffffffff1673ffffffffffffffffffffffffffffffffffffffff1681526020019081526020016000206000828254610df79190612174565b925050819055506001600360008473ffffffffffffffffffffffffffffffffffffffff1673ffffffffffffffffffffffffffffffffffffffff1681526020019081526020016000206000828254610e4e91906121a8565b92505081905550816002600083815260200190815260200160002060006101000a81548173ffffffffffffffffffffffffffffffffffffffff021916908373ffffffffffffffffffffffffffffffffffffffff160217905550808273ffffffffffffffffffffffffffffffffffffffff168473ffffffffffffffffffffffffffffffffffffffff167fddf252ad1be2c89b69c2b068fc378daa952ba7f163c4a11628f55a4df523b3ef60405160405180910390a4610f0d8383836113c9565b505050565b8173ffffffffffffffffffffffffffffffffffffffff168373ffffffffffffffffffffffffffffffffffffffff161415610f81576040517f08c379a0000000000000000000000000000000000000000000000000000000008152600401610f789061224a565b60405180910390fd5b80600560008573ffffffffffffffffffffffffffffffffffffffff1673ffffffffffffffffffffffffffffffffffffffff16815260200190815260200160002060008473ffffffffffffffffffffffffffffffffffffffff1673ffffffffffffffffffffffffffffffffffffffff16815260200190815260200160002060006101000a81548160ff0219169083151502179055508173ffffffffffffffffffffffffffffffffffffffff168373ffffffffffffffffffffffffffffffffffffffff167f17307eab39ab6107e8899845ad3d59bd9653f200f220920489ca2b5937696c3183604051611072919061179d565b60405180910390a3505050565b61108a848484610cab565b611096848484846113ce565b6110d5576040517f08c379a00000000000000000000000000000000000000000000000000000000081526004016110cc906122dc565b60405180910390fd5b50505050565b606060405180602001604052806000815250905090565b60606110fd82610b0a565b60006111076110db565b905060008151116111275760405180602001604052806000815250611152565b8061113184611565565b604051602001611142929190611ffd565b6040516020818303038152906040525b915050919050565b600081600001549050919050565b600073ffffffffffffffffffffffffffffffffffffffff168273ffffffffffffffffffffffffffffffffffffffff1614156111d8576040517f08c379a00000000000000000000000000000000000000000000000000000000081526004016111cf90612348565b60405180910390fd5b6111e181611358565b15611221576040517f08c379a0000000000000000000000000000000000000000000000000000000008152600401611218906123b4565b60405180910390fd5b61122d600083836113c4565b6001600360008473ffffffffffffffffffffffffffffffffffffffff1673ffffffffffffffffffffffffffffffffffffffff168152602001908152602001600020600082825461127d91906121a8565b92505081905550816002600083815260200190815260200160002060006101000a81548173ffffffffffffffffffffffffffffffffffffffff021916908373ffffffffffffffffffffffffffffffffffffffff160217905550808273ffffffffffffffffffffffffffffffffffffffff16600073ffffffffffffffffffffffffffffffffffffffff167fddf252ad1be2c89b69c2b068fc378daa952ba7f163c4a11628f55a4df523b3ef60405160405180910390a461133e600083836113c9565b5050565b6001816000016000828254019250508190555050565b60008073ffffffffffffffffffffffffffffffffffffffff166002600084815260200190815260200160002060009054906101000a900473ffffffffffffffffffffffffffffffffffffffff1673ffffffffffffffffffffffffffffffffffffffff1614159050919050565b505050565b505050565b60006113ef8473ffffffffffffffffffffffffffffffffffffffff166116c6565b15611558578373ffffffffffffffffffffffffffffffffffffffff1663150b7a02611418610b55565b8786866040518563ffffffff1660e01b815260040161143a9493929190612429565b602060405180830381600087803b15801561145457600080fd5b505af192505050801561148557506040513d601f19601f82011682018060405250810190611482919061248a565b60015b611508573d80600081146114b5576040519150601f19603f3d011682016040523d82523d6000602084013e6114ba565b606091505b50600081511415611500576040517f08c379a00000000000000000000000000000000000000000000000000000000081526004016114f7906122dc565b60405180910390fd5b805181602001fd5b63150b7a0260e01b7bffffffffffffffffffffffffffffffffffffffffffffffffffffffff1916817bffffffffffffffffffffffffffffffffffffffffffffffffffffffff19161491505061155d565b600190505b949350505050565b606060008214156115ad576040518060400160405280600181526020017f300000000000000000000000000000000000000000000000000000000000000081525090506116c1565b600082905060005b600082146115df5780806115c8906124b7565b915050600a826115d8919061252f565b91506115b5565b60008167ffffffffffffffff8111156115fb576115fa611abe565b5b6040519080825280601f01601f19166020018201604052801561162d5781602001600182028036833780820191505090505b5090505b600085146116ba576001826116469190612174565b9150600a856116559190612560565b603061166191906121a8565b60f81b81838151811061167757611676612591565b5b60200101907effffffffffffffffffffffffffffffffffffffffffffffffffffffffffffff1916908160001a905350600a856116b3919061252f565b9450611631565b8093505050505b919050565b6000808273ffffffffffffffffffffffffffffffffffffffff163b119050919050565b6000604051905090565b600080fd5b600080fd5b60007fffffffff0000000000000000000000000000000000000000000000000000000082169050919050565b611732816116fd565b811461173d57600080fd5b50565b60008135905061174f81611729565b92915050565b60006020828403121561176b5761176a6116f3565b5b600061177984828501611740565b91505092915050565b60008115159050919050565b61179781611782565b82525050565b60006020820190506117b2600083018461178e565b92915050565b600081519050919050565b600082825260208201905092915050565b60005b838110156117f25780820151818401526020810190506117d7565b83811115611801576000848401525b50505050565b6000601f19601f8301169050919050565b6000611823826117b8565b61182d81856117c3565b935061183d8185602086016117d4565b61184681611807565b840191505092915050565b6000602082019050818103600083015261186b8184611818565b905092915050565b6000819050919050565b61188681611873565b811461189157600080fd5b50565b6000813590506118a38161187d565b92915050565b6000602082840312156118bf576118be6116f3565b5b60006118cd84828501611894565b91505092915050565b600073ffffffffffffffffffffffffffffffffffffffff82169050919050565b6000611901826118d6565b9050919050565b611911816118f6565b82525050565b600060208201905061192c6000830184611908565b92915050565b61193b816118f6565b811461194657600080fd5b50565b60008135905061195881611932565b92915050565b60008060408385031215611975576119746116f3565b5b600061198385828601611949565b925050602061199485828601611894565b9150509250929050565b6000806000606084860312156119b7576119b66116f3565b5b60006119c586828701611949565b93505060206119d686828701611949565b92505060406119e786828701611894565b9150509250925092565b600060208284031215611a0757611a066116f3565b5b6000611a1584828501611949565b91505092915050565b611a2781611873565b82525050565b6000602082019050611a426000830184611a1e565b92915050565b611a5181611782565b8114611a5c57600080fd5b50565b600081359050611a6e81611a48565b92915050565b60008060408385031215611a8b57611a8a6116f3565b5b6000611a9985828601611949565b9250506020611aaa85828601611a5f565b9150509250929050565b600080fd5b600080fd5b7f4e487b7100000000000000000000000000000000000000000000000000000000600052604160045260246000fd5b611af682611807565b810181811067ffffffffffffffff82111715611b1557611b14611abe565b5b80604052505050565b6000611b286116e9565b9050611b348282611aed565b919050565b600067ffffffffffffffff821115611b5457611b53611abe565b5b611b5d82611807565b9050602081019050919050565b82818337600083830152505050565b6000611b8c611b8784611b39565b611b1e565b905082815260208101848484011115611ba857611ba7611ab9565b5b611bb3848285611b6a565b509392505050565b600082601f830112611bd057611bcf611ab4565b5b8135611be0848260208601611b79565b91505092915050565b60008060008060808587031215611c0357611c026116f3565b5b6000611c1187828801611949565b9450506020611c2287828801611949565b9350506040611c3387828801611894565b925050606085013567ffffffffffffffff811115611c5457611c536116f8565b5b611c6087828801611bbb565b91505092959194509250565b60008060408385031215611c8357611c826116f3565b5b6000611c9185828601611949565b9250506020611ca285828601611949565b9150509250929050565b7f4e487b7100000000000000000000000000000000000000000000000000000000600052602260045260246000fd5b60006002820490506001821680611cf357607f821691505b60208210811415611d0757611d06611cac565b5b50919050565b7f4552433732313a20617070726f76616c20746f2063757272656e74206f776e6560008201527f7200000000000000000000000000000000000000000000000000000000000000602082015250565b6000611d696021836117c3565b9150611d7482611d0d565b604082019050919050565b60006020820190508181036000830152611d9881611d5c565b9050919050565b7f4552433732313a20617070726f76652063616c6c6572206973206e6f7420746f60008201527f6b656e206f776e6572206e6f7220617070726f76656420666f7220616c6c0000602082015250565b6000611dfb603e836117c3565b9150611e0682611d9f565b604082019050919050565b60006020820190508181036000830152611e2a81611dee565b9050919050565b7f4552433732313a2063616c6c6572206973206e6f7420746f6b656e206f776e6560008201527f72206e6f7220617070726f766564000000000000000000000000000000000000602082015250565b6000611e8d602e836117c3565b9150611e9882611e31565b604082019050919050565b60006020820190508181036000830152611ebc81611e80565b9050919050565b7f4552433732313a20696e76616c696420746f6b656e2049440000000000000000600082015250565b6000611ef96018836117c3565b9150611f0482611ec3565b602082019050919050565b60006020820190508181036000830152611f2881611eec565b9050919050565b7f4552433732313a2061646472657373207a65726f206973206e6f74206120766160008201527f6c6964206f776e65720000000000000000000000000000000000000000000000602082015250565b6000611f8b6029836117c3565b9150611f9682611f2f565b604082019050919050565b60006020820190508181036000830152611fba81611f7e565b9050919050565b600081905092915050565b6000611fd7826117b8565b611fe18185611fc1565b9350611ff18185602086016117d4565b80840191505092915050565b60006120098285611fcc565b91506120158284611fcc565b91508190509392505050565b7f4552433732313a207472616e736665722066726f6d20696e636f72726563742060008201527f6f776e6572000000000000000000000000000000000000000000000000000000602082015250565b600061207d6025836117c3565b915061208882612021565b604082019050919050565b600060208201905081810360008301526120ac81612070565b9050919050565b7f4552433732313a207472616e7366657220746f20746865207a65726f2061646460008201527f7265737300000000000000000000000000000000000000000000000000000000602082015250565b600061210f6024836117c3565b915061211a826120b3565b604082019050919050565b6000602082019050818103600083015261213e81612102565b9050919050565b7f4e487b7100000000000000000000000000000000000000000000000000000000600052601160045260246000fd5b600061217f82611873565b915061218a83611873565b92508282101561219d5761219c612145565b5b828203905092915050565b60006121b382611873565b91506121be83611873565b9250827fffffffffffffffffffffffffffffffffffffffffffffffffffffffffffffffff038211156121f3576121f2612145565b5b828201905092915050565b7f4552433732313a20617070726f766520746f2063616c6c657200000000000000600082015250565b60006122346019836117c3565b915061223f826121fe565b602082019050919050565b6000602082019050818103600083015261226381612227565b9050919050565b7f4552433732313a207472616e7366657220746f206e6f6e20455243373231526560008201527f63656976657220696d706c656d656e7465720000000000000000000000000000602082015250565b60006122c66032836117c3565b91506122d18261226a565b604082019050919050565b600060208201905081810360008301526122f5816122b9565b9050919050565b7f4552433732313a206d696e7420746f20746865207a65726f2061646472657373600082015250565b60006123326020836117c3565b915061233d826122fc565b602082019050919050565b6000602082019050818103600083015261236181612325565b9050919050565b7f4552433732313a20746f6b656e20616c7265616479206d696e74656400000000600082015250565b600061239e601c836117c3565b91506123a982612368565b602082019050919050565b600060208201905081810360008301526123cd81612391565b9050919050565b600081519050919050565b600082825260208201905092915050565b60006123fb826123d4565b61240581856123df565b93506124158185602086016117d4565b61241e81611807565b840191505092915050565b600060808201905061243e6000830187611908565b61244b6020830186611908565b6124586040830185611a1e565b818103606083015261246a81846123f0565b905095945050505050565b60008151905061248481611729565b92915050565b6000602082840312156124a05761249f6116f3565b5b60006124ae84828501612475565b91505092915050565b60006124c282611873565b91507fffffffffffffffffffffffffffffffffffffffffffffffffffffffffffffffff8214156124f5576124f4612145565b5b600182019050919050565b7f4e487b7100000000000000000000000000000000000000000000000000000000600052601260045260246000fd5b600061253a82611873565b915061254583611873565b92508261255557612554612500565b5b828204905092915050565b600061256b82611873565b915061257683611873565b92508261258657612585612500565b5b828206905092915050565b7f4e487b7100000000000000000000000000000000000000000000000000000000600052603260045260246000fdfea2646970667358221220d8d6e32687d6d1121536a259c9be9763fc16c0fe94e0da3e86a9ab91a7f107a664736f6c63430008090033",
  "linkReferences": {},
  "deployedLinkReferences": {}
}